:100000000C9472000C94EC010C948F000C948F00F3
:100010000C948F000C948F000C948F000C948F0024
:100020000C948F000C9410020C948F000C948F0091
:100030000C948F000C948F000C948F000C948F0004
:100040000C948F000C948F000C948F000C948F00F4
:100050000C948F000C948F000C948F000C948F00E4
:100060000C948F000C948F000C948F000C948F00D4
:100070000C948F000C948F000C948F000C948F00C4
:100080000C947B010C948F000C948F000C948F00C7
:100090000C948F000C948F000C948F000C948F00A4
:1000A0000C948F000C948F000C9421010C948F0001
:1000B0000C948F000C948F000C948F000C947D0492
:1000C0000C948F000C948F000C948F000C948F0074
:1000D0000C948F000C948F000C948F000C948F0064
:1000E0000C948F0011241FBECFEFD1E2DEBFCDBF35
:1000F00012E0A0E0B2E0ECEDFAE002C005900D9253
:10010000A231B107D9F722E0A2E1B2E001C01D920D
:10011000AE32B207E1F70E94AD020C946C050C946C
:10012000000081E0809321020895F8948BE280938F
:10013000800085E18093810010926F008FE396E04C
:1001400090938900809388008FE594E090938B00D2
:1001500080938A008FE193E090938D0080938C00D0
:100160001092A0008CE08093A10082E08093720046
:1001700021E13AE73093A9002093A8001092900063
:100180009AE0909391008093710087EE93E09093B2
:100190009900809398007894089560911902709165
:1001A0001A0280911B0290911C02089580911802FE
:1001B000882329F0809118028150809318020895B5
:1001C000809117028F5F8093170208958091170224
:1001D000882329F080911702815080931702089597
:1001E0000E9495000895F89484B18E7F84B9EBE65F
:1001F000F0E0808181608083A8E6B0E08C9181602E
:100200008C938BB381608BBB84B18D7F84B98081EB
:100210008260808384B18F7E84B980818061808395
:1002200084B18F7D84B98AB18F7D8AB984B18B7F87
:1002300084B9808184608083789408950E94F3005B
:1002400008951F920F920FB60F9211248F939F93D0
:10025000AF93BF9380911D0290911E02A0911F0247
:10026000B09120020196A11DB11D80931D029093B3
:100270001E02A0931F02B0932002809116028130CB
:1002800099F48091120290911302A0911402B091FE
:1002900015020196A11DB11D8093120290931302C5
:1002A000A0931402B0931502809112029091130250
:1002B000A0911402B0911502C397A105B10590F069
:1002C00080911802882371F08091160281110AC072
:1002D0008091180281508093180281E0809300027F
:1002E00010921602BF91AF919F918F910F900FBE08
:1002F0000F901F9018951F920F920FB60F92112416
:100300002F933F934F935F936F937F938F939F931D
:10031000AF93BF93EF93FF938091190290911A02CC
:10032000A0911B02B0911C020196A11DB11D8093EA
:10033000190290931A02A0931B02B0931C026091C1
:10034000190270911A0280911B0290911C0222E303
:1003500030E040E050E00E944A05672B682B692B93
:1003600051F581E08093240293B192709093100232
:10037000E6E0F1E09081907290930F02908192708C
:1003800090930E0299B196959827917090932302BD
:1003900093B1987090930A0290819078909309029B
:1003A000908198709093080299B1969596958927B7
:1003B000817080932202FF91EF91BF91AF919F9145
:1003C0008F917F916F915F914F913F912F910F90FE
:1003D0000FBE0F901F9018951F920F920FB60F929D
:1003E00011242F933F934F935F936F937F938F933A
:1003F0009F93AF93BF93EF93FF930E943905FF91B3
:10040000EF91BF91AF919F918F917F916F915F918C
:100410004F913F912F910F900FBE0F901F90189505
:100420001F920F920FB60F9211242F933F934F9369
:100430005F936F937F938F939F93AF93BF93CF936C
:10044000EF93FF93189B08C080910402811104C0B0
:1004500081E0809304026FC018991BC08091040250
:100460008130B9F480910002813099F480911802B2
:100470008F5F8093180281E080931602109212021F
:10048000109213021092140210921502109204029C
:1004900052C0199919C0809103028130A9F480914A
:1004A0001602813089F48091120290911302A0917A
:1004B0001402B0911502C297A105B10528F410925B
:1004C00016021092030237C0199B08C080910302E4
:1004D000811104C081E0809303022DC01C9B0CC0DD
:1004E00080910202811108C0C1E0C09300020E9405
:1004F000D600C09302021FC01C9909C0809102025D
:10050000813029F40E94E0001092020214C01A9B6C
:100510000AC080910102811106C00E94E60081E0BC
:100520008093010208C01A9906C0809101028130AF
:1005300011F410920102FF91EF91CF91BF91AF9111
:100540009F918F917F916F915F914F913F912F91EB
:100550000F900FBE0F901F9018950E94F0000E9400
:10056000D3030E94C9040E943C050E941E010E9400
:10057000DA030E94D0040E944505F9CF8AB1806158
:100580008AB9EAE0F1E08081806180838BB180618B
:100590008BB9EBE0F1E080818F7E80838AB180644B
:1005A0008AB98BB18F7B8BB908958BB180618BB980
:1005B000EBE0F1E080818061808308958BB1806100
:1005C0008BB9EBE0F1E080818F7E808308958BB161
:1005D0008F7E8BB908958BB180648BB908958BB1F0
:1005E0008F7B8BB9089590910D0280911002981322
:1005F00010C090910C0280910F0298130AC0909144
:100600000B0280910E02981304C081E080932602B1
:1006100002C01092260280912302813061F45C9B1B
:100620000AC00E94EF02EBE0F1E0908180E18927AF
:1006300080830E94E70280912602882309F180913D
:100640000F02811109C080911002882329F00E94B5
:10065000E7020E94EB0214C080911002811105C0D4
:100660000E94D5020E94EB020BC0809123028111EF
:1006700005C00E94DE020E94EB0202C00E94EF024F
:100680008091100280930D0280910F0280930C02E2
:1006900080910E0280930B02089584B1806484B926
:1006A0008AB180688AB985B1806485B98BB18F774A
:1006B0008BB9089585B1806485B98BB180688BB999
:1006C000089585B1806485B98BB18F778BB9089512
:1006D00085B18F7B85B908959091070280910A02B8
:1006E000981310C0909106028091090298130AC0D5
:1006F0009091050280910802981304C081E08093D4
:10070000250202C010922502809125028823F1F172
:1007100080910902882359F080910A02882339F0D8
:1007200080910802882319F00E9461032FC08091F4
:100730000902811108C080910A02882321F080916A
:100740000802811103C00E945A0320C0809109024F
:1007500081110BC080910A02882321F08091080248
:10076000811103C00E945A0311C0809109028111B6
:100770000BC080910A02882339F0809108028823F7
:1007800019F00E94680302C00E94680380910A0267
:1007900080930702809109028093060280910802EB
:1007A000809305020895F8940E94BE020E944D03B2
:1007B0007894089580912402882331F00E94F302F6
:1007C0000E946C03109224020895F894EAE0F1E08C
:1007D000808184608083EBE0F1E080818B7F808387
:1007E00084B18E7F84B9EDE6F0E0808184608083FF
:1007F000E8E6F0E08081846080838BB384608BBB0B
:10080000789405C0EBE0F1E0808184608083809182
:10081000060182FDF7CFEBE0F1E080818B7F8083E2
:1008200008950F931F9380912D02813051F018F09D
:10083000823021F12EC0EBE0F1E080818B7F80835C
:1008400028C00E94CD000091290210912A02209117
:100850002B0230912C02DC01CB01801B910BA20BEF
:10086000B30B81349640A105B10598F0EBE0F1E0BF
:1008700080818B7F808310922D020BC080910601B6
:1008800082FD07C0EBE0F1E080818B7F80831092D6
:100890002D021F910F910895F894EAE0F1E0808114
:1008A00082608083EBE0F1E080818D7F8083E1E2F4
:1008B000F1E08081856080831092250110922401EF
:1008C00081E49FE09093290180932801E3E7F0E021
:1008D00080818260808378940895809118028111CC
:1008E00008C080911702811104C084E18093110235
:1008F000089582E08093110208951F920F920FB61F
:100900000F9211248F939F93EF93FF93809128026E
:100910008F5F809328029091280280911102981392
:1009200008C0EBE0F1E080818260808310922802B1
:1009300009C080912802813029F4EBE0F1E0808148
:100940008D7F8083FF91EF919F918F910F900FBECC
:100950000F901F901895E7E0F1E08081806480831C
:10096000E8E0F1E080818F7B808308958091270209
:10097000882319F0813039F00895E8E0F1E08081B2
:100980008F7B80830895E8E0F1E08081806480833C
:1009900008950E94E5030E944C040E94AB04089550
:1009A0000E9411040E946D040E94B6040895EAE0BA
:1009B000F1E080818160808384B1806884B9EBE05C
:1009C000F1E0808181608083089585B1806885B978
:1009D000089585B18F7785B90895809118028111A6
:1009E00007C080911702811103C00E94E904089595
:1009F0000E94E5040895EAE0F1E080818860808348
:100A000080818062808308958091180281110DC0D9
:100A100080911702811109C0EBE0F1E08081877FAE
:100A2000808380818F7D808308951D9B0DC04D99AB
:100A30000BC01A9909C0EBE0F1E08081877F8083C9
:100A40008081806280830895EBE0F1E0808188609E
:100A5000808380818F7D80830895E9E6F0E0808146
:100A6000816080838081826080838DB381608DBB53
:100A700008950E9491000895F8940E94D7040E945E
:100A8000FB040E942D05789408950E94ED040E94B5
:100A900004050895A1E21A2EAA1BBB1BFD010DC07F
:100AA000AA1FBB1FEE1FFF1FA217B307E407F5071E
:100AB00020F0A21BB30BE40BF50B661F771F881FFA
:100AC000991F1A9469F760957095809590959B0190
:0C0AD000AC01BD01CF010895F894FFCFE8
:100ADC0001010101010101010101010101010101FA
:020AEC000114F3
:00000001FF
