:100000000C9472000C942C020C948F000C948F00B2
:100010000C948F000C948F000C948F000C948F0024
:100020000C948F000C9433020C948F000C948F006E
:100030000C948F000C948F000C948F000C948F0004
:100040000C948F000C948F000C948F000C948F00F4
:100050000C948F000C948F000C948F000C948F00E4
:100060000C948F000C948F000C948F000C948F00D4
:100070000C948F000C948F000C948F000C948F00C4
:100080000C9496010C948F000C948F000C948F00AC
:100090000C948F000C948F000C948F000C948F00A4
:1000A0000C948F000C948F000C9443010C948F00DF
:1000B0000C948F000C948F000C948F000C941205FC
:1000C0000C948F000C948F000C948F000C948F0074
:1000D0000C948F000C948F000C948F000C948F0064
:1000E0000C948F0011241FBECFEFD1E2DEBFCDBF35
:1000F00012E0A0E0B2E0E8E0FCE002C005900D9262
:10010000A231B107D9F722E0A2E1B2E001C01D920D
:10011000AE32B207E1F70E94FD020C9402060C9485
:10012000000010922B0210922502109226021092CB
:1001300027021092280210921D0210921E021092A5
:100140001F021092200210922D021092290281E0CB
:1001500080932A0210922C02109221021092220205
:1001600010922302109224020895F8948BE2809357
:10017000800082E18093810010926F008FE396E00F
:1001800090938900809388008FE594E090938B0092
:1001900080938A008FE792E090938D0080938C008B
:1001A0001092A0008CE08093A10082E08093720006
:1001B00021E13AE73093A9002093A8001092900023
:1001C0009AE0909391008093710087EE93E0909372
:1001D00099008093980078940895809129028F5F08
:1001E00080932902089580912902882329F0809123
:1001F0002902815080932902089580912D028F5FFA
:1002000080932D02089580912D02882329F08091FA
:100210002D02815080932D0208950E9491000E942A
:10022000B5000895F89484B18E7F84B9EBE6F0E0D0
:10023000808181608083A8E6B0E08C9181608C939E
:100240008BB381608BBB84B18D7F84B980818260E8
:10025000808384B18F7E84B980818061808384B102
:100260008F7D84B98081806280838AB18F7D8AB9D5
:1002700084B18B7F84B98081846080837894089571
:100280000E94120108951F920F920FB60F9211242F
:100290004F935F936F937F938F939F93AF93BF938E
:1002A0008091250290912602A0912702B091280208
:1002B0000196A11DB11D8093250290932602A09363
:1002C0002702B09328028091250290912602A091E6
:1002D0002702B091280240912102509122026091A0
:1002E000230270912402841B950BA60BB70BCD97AC
:1002F000A105B10570F080912902882351F0809109
:100300002C02813031F41092290280932A0210923B
:100310002C02BF91AF919F918F917F916F915F91CF
:100320004F910F900FBE0F901F9018951F920F9234
:100330000FB60F9211242F933F934F935F936F93B8
:100340007F938F939F93AF93BF93EF93FF9380918E
:100350001D0290911E02A0911F02B09120020196F1
:10036000A11DB11D80931D0290931E02A0931F0238
:10037000B093200260911D0270911E0280911F02B5
:10038000909120022EE130E040E050E00E94E00534
:10039000672B682B692B51F581E08093140293B190
:1003A000927090931002E6E0F1E090819072909349
:1003B0000F029081927090930E0299B196959827B2
:1003C00091709093130293B1987090930A02908168
:1003D000907890930902908198709093080299B157
:1003E000969596958927817080931202FF91EF91DF
:1003F000BF91AF919F918F917F916F915F914F913D
:100400003F912F910F900FBE0F901F9018958AB1BA
:100410008E7F8AB9E9E6F0E080818E7F80838081DB
:10042000826080838DB381608DBB8CB381608CBB17
:10043000089510922A02F8940E9437030E943F0305
:100440000E94BC030E9483040E9480050E94A005B4
:1004500080E00E944B05FCCF1F920F920FB60F92C7
:1004600011240E9419021F920F920FB60F921124AD
:100470002F933F934F935F936F937F938F939F93AC
:10048000AF93BF93CF93EF93FF93189B0AC08091D4
:100490000402811106C00E947A0481E08093040264
:1004A0009AC0189924C080910402813001F580918E
:1004B0002A028130E1F40E94ED0081E080932C0259
:1004C0008091250290912602A0912702B0912802E6
:1004D0008093210290932202A0932302B0932402DE
:1004E00010922A020E9461041092040274C01999A9
:1004F00025C080910302813009F580912C02813062
:10050000E9F48091250290912602A0912702B091F2
:1005100028024091210250912202609123027091A1
:100520002402841B950BA60BB70BCC97A105B10534
:1005300028F410922C02109203024DC0199B08C09F
:1005400080910302811104C081E08093030243C0C3
:100550001C9B0CC080910202811108C0C1E0C093B5
:100560002A020E94F300C093020235C01C9909C000
:1005700080910202813029F40E94FD001092020253
:100580002AC01A9B0AC080910002811106C00E94F5
:10059000030181E0809300021EC01A990AC0809175
:1005A0000002813031F4109200024D9B14C00E9471
:1005B00019021D9907C080910102813019F410922F
:1005C000010209C01D9B07C080910102811103C077
:1005D00081E080930102FF91EF91CF91BF91AF91A4
:1005E0009F918F917F916F915F914F913F912F914B
:1005F0000F900FBE0F901F9018950E940D010E9442
:1006000040010E9427040E9459050E94D2050E94C1
:100610002E040E9460050E94DB05F9CF8AB180613B
:100620008AB9EAE0F1E08081806180838BB18061EA
:100630008BB9EBE0F1E080818F7E80838AB18064AA
:100640008AB98BB18F7B8BB908958BB180618BB9DF
:10065000EBE0F1E080818061808308958BB180615F
:100660008BB9EBE0F1E080818F7E808308958BB1C0
:100670008F7E8BB908958BB180648BB908958BB14F
:100680008F7B8BB9089590910D0280911002981381
:1006900010C090910C0280910F0298130AC09091A3
:1006A0000B0280910E02981304C081E08093160221
:1006B00002C01092160280911302813061F45C9B9B
:1006C0000AC00E943F03EBE0F1E0908180E18927BE
:1006D00080830E94370380911602882329F180913C
:1006E0000F02882321F080910E02811109C08091B0
:1006F0001002882329F00E9437030E943B0314C094
:1007000080911002811105C00E9425030E943B03C5
:100710000BC080911302811105C00E942E030E941C
:100720003B0302C00E943F038091100280930D02A0
:1007300080910F0280930C0280910E0280930B0235
:10074000089584B1806484B98AB180688AB985B11A
:10075000806485B98BB18F778BB9089585B180643A
:1007600085B98BB180688BB9089585B1806485B9EE
:100770008BB18F778BB9089585B18F7B85B908953B
:100780009091070280910A02981310C0909106027E
:100790008091090298130AC0909105028091080285
:1007A000981304C081E08093150202C010921502D4
:1007B000809115028823F1F180910902882359F074
:1007C00080910A02882339F080910802882319F069
:1007D0000E94B5032FC080910902811108C0809149
:1007E0000A02882321F080910802811103C00E942F
:1007F000AE0320C08091090281110BC080910A02D2
:10080000882321F080910802811103C00E94AE0369
:1008100011C08091090281110BC080910A028823C6
:1008200039F080910802882319F00E94BC0302C0AD
:100830000E94BC0380910A02809307028091090202
:100840008093060280910802809305020895F8942F
:100850000E940E030E94A1037894089580911402CF
:10086000882331F00E9443030E94C00310921402B7
:1008700080912902882319F00E943B0308950E9469
:100880003F030895F894EAE0F1E08081846080837A
:10089000EBE0F1E080818B7F808384B18E7F84B92F
:1008A000789405C0EBE0F1E08081846080838091E2
:1008B000060182FDF7CFEBE0F1E080818B7F808342
:1008C000089580911D0290911E02A0911F02B09187
:1008D00020028093180290931902A0931A02B093F9
:1008E0001B02EBE0F1E080818460808381E08093F3
:1008F0001C020895EBE0F1E080818460808382E057
:1009000080931C02089510921C02089580911C028D
:10091000813051F018F0823041F10895EBE0F1E0C0
:1009200080818B7F8083089580911D0290911E02AB
:10093000A0911F02B091200240911802509119021B
:1009400060911A0270911B02841B950BA60BB70BCA
:1009500081349640A105B10598F0EBE0F1E080818B
:100960008B7F808310921C0208958091060182FD86
:1009700007C0EBE0F1E080818B7F808310921C0246
:100980000895F894EAE0F1E0808182608083EBE0F2
:10099000F1E080818D7F8083E1E2F1E080818C60F5
:1009A0008083109225011092240188E09DE39093AA
:1009B000290180932801E3E7F0E080818260808351
:1009C0008AB382608ABB789408958091290281114C
:1009D00004C080912D02882339F080911102843166
:1009E00019F4109217020EC08091290281110AC0D9
:1009F00080912D02811106C080911102823011F484
:100A00001092170280912902811108C080912D0255
:100A1000811104C084E180931102089582E08093E3
:100A2000110208951F920F920FB60F9211248F9307
:100A30009F93EF93FF93809117028F5F809317022C
:100A40009091170280911102981308C0EBE0F1E039
:100A50008081826080831092170209C08091170202
:100A6000813029F4EBE0F1E080818D7F8083FF917C
:100A7000EF919F918F910F900FBE0F901F9018953F
:100A8000E7E0F1E0808180648083E8E0F1E080814C
:100A90008F7B80830895811106C0E8E0F1E08081BA
:100AA0008F7B80830895E8E0F1E08081806480831B
:100AB00008950E9442040E94C1040E9440050895C6
:100AC0000E9486040E94E504809129020E944B0541
:100AD0000895EAE0F1E080818160808384B18068DC
:100AE00084B9EBE0F1E0808181608083089585B175
:100AF000806885B9E0E8F0E08081886080830895AF
:100B000085B18F7785B9E0E8F0E08081877F8083C9
:100B1000089580912902811107C080912D028111D1
:100B200003C00E94800508950E9477050895EAE0B9
:100B3000F1E0808188608083808180628083089575
:100B4000EBE0F1E08081877F808380818062808319
:100B500008958091290281110DC080912D0281118B
:100B600009C0EBE0F1E08081877F808380818F7D09
:100B7000808308951D9B0DC04D990BC01A9909C023
:100B8000EBE0F1E08081877F8083808180628083D9
:100B90000895EBE0F1E080818860808380818F7D23
:100BA00080830895F8940E9469050E9497050E9429
:100BB0000702789408950E9489050E94A905089566
:100BC000A1E21A2EAA1BBB1BFD010DC0AA1FBB1F51
:100BD000EE1FFF1FA217B307E407F50720F0A21BC3
:100BE000B30BE40BF50B661F771F881F991F1A9430
:100BF00069F760957095809590959B01AC01BD015A
:080C0000CF010895F894FFCF25
:100C080001010101010101010101010101010101CC
:020C18000114C5
:00000001FF
